{
  "contractName": "Quiz2",
  "abi": [
    {
      "constant": true,
      "inputs": [],
      "name": "owner",
      "outputs": [
        {
          "name": "",
          "type": "address"
        }
      ],
      "payable": false,
      "stateMutability": "view",
      "type": "function"
    },
    {
      "inputs": [],
      "payable": false,
      "stateMutability": "nonpayable",
      "type": "constructor"
    },
    {
      "anonymous": false,
      "inputs": [
        {
          "indexed": false,
          "name": "",
          "type": "address"
        },
        {
          "indexed": false,
          "name": "",
          "type": "string"
        },
        {
          "indexed": false,
          "name": "",
          "type": "uint256"
        }
      ],
      "name": "Scored",
      "type": "event"
    },
    {
      "constant": false,
      "inputs": [
        {
          "name": "participant",
          "type": "address"
        },
        {
          "name": "_title",
          "type": "string"
        },
        {
          "name": "_score",
          "type": "uint256"
        }
      ],
      "name": "setScore",
      "outputs": [],
      "payable": false,
      "stateMutability": "nonpayable",
      "type": "function"
    },
    {
      "constant": true,
      "inputs": [
        {
          "name": "participant",
          "type": "address"
        }
      ],
      "name": "getScore",
      "outputs": [
        {
          "name": "",
          "type": "uint256"
        }
      ],
      "payable": false,
      "stateMutability": "view",
      "type": "function"
    },
    {
      "constant": true,
      "inputs": [
        {
          "name": "participant",
          "type": "address"
        }
      ],
      "name": "getTitleAndScore",
      "outputs": [
        {
          "name": "",
          "type": "string"
        },
        {
          "name": "",
          "type": "uint256"
        }
      ],
      "payable": false,
      "stateMutability": "view",
      "type": "function"
    },
    {
      "constant": false,
      "inputs": [],
      "name": "kill",
      "outputs": [],
      "payable": false,
      "stateMutability": "nonpayable",
      "type": "function"
    }
  ],
  "bytecode": "0x6060604052341561000f57600080fd5b336000806101000a81548173ffffffffffffffffffffffffffffffffffffffff021916908373ffffffffffffffffffffffffffffffffffffffff1602179055506106d18061005e6000396000f30060606040526004361061006d576000357c0100000000000000000000000000000000000000000000000000000000900463ffffffff1680633058856a1461007257806341c0e1b5146100f75780638da5cb5b1461010c578063d47875d014610161578063e2d5df04146101ae575b600080fd5b341561007d57600080fd5b6100f5600480803573ffffffffffffffffffffffffffffffffffffffff1690602001909190803590602001908201803590602001908080601f01602080910402602001604051908101604052809392919081815260200183838082843782019150505050505091908035906020019091905050610267565b005b341561010257600080fd5b61010a6103dc565b005b341561011757600080fd5b61011f610450565b604051808273ffffffffffffffffffffffffffffffffffffffff1673ffffffffffffffffffffffffffffffffffffffff16815260200191505060405180910390f35b341561016c57600080fd5b610198600480803573ffffffffffffffffffffffffffffffffffffffff16906020019091905050610475565b6040518082815260200191505060405180910390f35b34156101b957600080fd5b6101e5600480803573ffffffffffffffffffffffffffffffffffffffff169060200190919050506104be565b6040518080602001838152602001828103825284818151815260200191508051906020019080838360005b8381101561022b578082015181840152602081019050610210565b50505050905090810190601f1680156102585780820380516001836020036101000a031916815260200191505b50935050505060405180910390f35b80600160008573ffffffffffffffffffffffffffffffffffffffff1673ffffffffffffffffffffffffffffffffffffffff1681526020019081526020016000208190555081600260008573ffffffffffffffffffffffffffffffffffffffff1673ffffffffffffffffffffffffffffffffffffffff16815260200190815260200160002090805190602001906102fe9291906105ec565b507fcf75ec318f8ceecbe4b08a765409e781240300351b34a6cdaea8a5dfd8a4af27838383604051808473ffffffffffffffffffffffffffffffffffffffff1673ffffffffffffffffffffffffffffffffffffffff16815260200180602001838152602001828103825284818151815260200191508051906020019080838360005b8381101561039b578082015181840152602081019050610380565b50505050905090810190601f1680156103c85780820380516001836020036101000a031916815260200191505b5094505050505060405180910390a1505050565b6000809054906101000a900473ffffffffffffffffffffffffffffffffffffffff1673ffffffffffffffffffffffffffffffffffffffff163373ffffffffffffffffffffffffffffffffffffffff1614151561043757600080fd5b3073ffffffffffffffffffffffffffffffffffffffff16ff5b6000809054906101000a900473ffffffffffffffffffffffffffffffffffffffff1681565b6000600160008373ffffffffffffffffffffffffffffffffffffffff1673ffffffffffffffffffffffffffffffffffffffff168152602001908152602001600020549050919050565b6104c661066c565b6000600260008473ffffffffffffffffffffffffffffffffffffffff1673ffffffffffffffffffffffffffffffffffffffff168152602001908152602001600020600160008573ffffffffffffffffffffffffffffffffffffffff1673ffffffffffffffffffffffffffffffffffffffff16815260200190815260200160002054818054600181600116156101000203166002900480601f0160208091040260200160405190810160405280929190818152602001828054600181600116156101000203166002900480156105dc5780601f106105b1576101008083540402835291602001916105dc565b820191906000526020600020905b8154815290600101906020018083116105bf57829003601f168201915b5050505050915091509150915091565b828054600181600116156101000203166002900490600052602060002090601f016020900481019282601f1061062d57805160ff191683800117855561065b565b8280016001018555821561065b579182015b8281111561065a57825182559160200191906001019061063f565b5b5090506106689190610680565b5090565b602060405190810160405280600081525090565b6106a291905b8082111561069e576000816000905550600101610686565b5090565b905600a165627a7a7230582082a37e945b69b9a3d9516f08ce1e3c37e4b078578c52d70e88aa0626f5b0f8540029",
  "source": "pragma solidity ^0.4.18;\r\n\r\ncontract Quiz2 {\r\n// Contract owner\r\naddress public owner;\r\n\r\n// Score of participants\r\n// mapping(address => bool[10]) private score;\r\nmapping(address =>\r\nuint) private score;\r\nmapping(address =>\r\nstring) private title;\r\n\r\nevent Scored(address,\r\nstring, uint);\r\n\r\nfunction Quiz2()\r\npublic {\r\nowner = msg.sender;\r\n}\r\n\r\nfunction setScore(address participant,\r\nstring _title, \r\nuint _score) public {\r\nscore[participant] = _score;\r\ntitle[participant] = _title;\r\nScored(participant, _title, _score);\r\n}\r\n\r\nfunction getScore(address participant)\r\npublic view\r\nreturns (uint) {\r\nreturn score[participant];\r\n}\r\n\r\nfunction getTitleAndScore(address participant)\r\npublic view\r\nreturns (string,\r\nuint) {\r\nreturn (title[participant], score[participant]);\r\n}\r\n\r\nfunction kill()\r\npublic {\r\nrequire(msg.sender\r\n== owner);\r\nselfdestruct(this);\r\n}\r\n\r\n}",
  "sourcePath": "C:\\Projects\\ICT-markt\\ICT-markt\\contracts\\Quiz2.sol",
  "compiler": {
    "name": "solc",
    "version": "0.4.19+commit.c4cbbb05.Emscripten.clang"
  },
  "schemaVersion": "2.0.0",
  "updatedAt": "2018-03-22T08:29:40.079Z"
}