{
  "contractName": "Quiz",
  "abi": [
    {
      "constant": true,
      "inputs": [],
      "name": "owner",
      "outputs": [
        {
          "name": "",
          "type": "address"
        }
      ],
      "payable": false,
      "stateMutability": "view",
      "type": "function"
    },
    {
      "inputs": [],
      "payable": false,
      "stateMutability": "nonpayable",
      "type": "constructor"
    },
    {
      "anonymous": false,
      "inputs": [],
      "name": "Scored",
      "type": "event"
    },
    {
      "constant": false,
      "inputs": [
        {
          "name": "participant",
          "type": "address"
        },
        {
          "name": "_score",
          "type": "uint256"
        }
      ],
      "name": "setScore",
      "outputs": [],
      "payable": false,
      "stateMutability": "nonpayable",
      "type": "function"
    },
    {
      "constant": true,
      "inputs": [
        {
          "name": "participant",
          "type": "address"
        }
      ],
      "name": "getScore",
      "outputs": [
        {
          "name": "",
          "type": "uint256"
        }
      ],
      "payable": false,
      "stateMutability": "view",
      "type": "function"
    },
    {
      "constant": false,
      "inputs": [],
      "name": "updateScore",
      "outputs": [],
      "payable": false,
      "stateMutability": "nonpayable",
      "type": "function"
    }
  ],
  "bytecode": "0x6060604052341561000f57600080fd5b336000806101000a81548173ffffffffffffffffffffffffffffffffffffffff021916908373ffffffffffffffffffffffffffffffffffffffff1602179055506103268061005e6000396000f300606060405260043610610062576000357c0100000000000000000000000000000000000000000000000000000000900463ffffffff1680632d9e9c9c146100675780638da5cb5b1461007c578063d47875d0146100d1578063ee0fcc751461011e575b600080fd5b341561007257600080fd5b61007a610160565b005b341561008757600080fd5b61008f61018e565b604051808273ffffffffffffffffffffffffffffffffffffffff1673ffffffffffffffffffffffffffffffffffffffff16815260200191505060405180910390f35b34156100dc57600080fd5b610108600480803573ffffffffffffffffffffffffffffffffffffffff169060200190919050506101b3565b6040518082815260200191505060405180910390f35b341561012957600080fd5b61015e600480803573ffffffffffffffffffffffffffffffffffffffff16906020019091908035906020019091905050610257565b005b7fa39fc67233f3694308a08f49b7dbb05ca6402df97f7edd70de4b919e2d61c27160405160405180910390a1565b6000809054906101000a900473ffffffffffffffffffffffffffffffffffffffff1681565b60008060009054906101000a900473ffffffffffffffffffffffffffffffffffffffff1673ffffffffffffffffffffffffffffffffffffffff163373ffffffffffffffffffffffffffffffffffffffff1614151561021057600080fd5b600160008373ffffffffffffffffffffffffffffffffffffffff1673ffffffffffffffffffffffffffffffffffffffff168152602001908152602001600020549050919050565b6000809054906101000a900473ffffffffffffffffffffffffffffffffffffffff1673ffffffffffffffffffffffffffffffffffffffff163373ffffffffffffffffffffffffffffffffffffffff161415156102b257600080fd5b80600160008473ffffffffffffffffffffffffffffffffffffffff1673ffffffffffffffffffffffffffffffffffffffff1681526020019081526020016000208190555050505600a165627a7a7230582095bb2e58fcbf652d606fdf0aebfbb01dfcfa73021801e0d63a0b6c88d3b2eb690029",
  "source": "\npragma solidity ^0.4.18;\n\ncontract Quiz {\n   // Contract owner\n   address public owner;\n\n   // Score of participants\n   // mapping(address => bool[10]) private score;\n   mapping(address => uint) private score;\n\n   event Scored();\n\n   function Quiz() public {\n     owner = msg.sender;\n   }\n\n   function setScore(address participant, uint _score) public {\n     require(msg.sender == owner);\n     score[participant] = _score;\n   }\n\n   function getScore(address participant) public view returns (uint) {\n     require(msg.sender == owner);\n     return score[participant];\n   }\n\n   function updateScore() public {\n     // Calls the callback function\n     Scored();\n   }\n\n}\n",
  "sourcePath": "/media/jcvm/Blockchain/Projecten/ICT-markt /contracts/Quiz.sol",
  "compiler": {
    "name": "solc",
    "version": "0.4.19+commit.c4cbbb05.Emscripten.clang"
  },
  "schemaVersion": "2.0.0",
  "updatedAt": "2018-03-20T11:35:55.191Z"
}